:020000040800F2
:1000000000800120810D0008D10D0008D10D0008ED
:10001000D10D0008D10D0008D10D0008000000002E
:10002000000000000000000000000000D10D0008EA
:10003000D10D000800000000D10D0008D10D00080E
:1000400000000000D10D0008D10D0008D10D0008FE
:10005000D10D0008D10D0008D10D0008D10D000808
:10006000D10D0008250B0008990B0008D10D0008E0
:10007000D10D0008D10D0008D10D0008D10D0008E8
:10008000D10D0008D10D0008D10D000800000000BE
:10009000000000000000000000000000E90A000865
:1000A000D10D0008D10D0008D10D0008D10D0008B8
:1000B000D10D0008810C0008D10D0008D10D0008F9
:1000C000D10D0008D10D0008D10D0008D10D000898
:1000D000D10D0008D10D0008E90C00080000000057
:1000E0000D0C0008D10D0008D10D00080000000023
:1000F000000000000000000000000000D10D00081A
:1001000000000000D10D0008D10D0008D10D00083D
:1001100000000000000000000000000000000000DF
:10012000D10D0008D10D0008D10D0008D10D000837
:10013000D10D0008000000000000000000000000D9
:10014000000000000000000000000000D10D0008C9
:10015000D10D0008D10D0008D10D0008D10D000807
:10016000D10D0008D10D00080000000000000000C3
:10017000000000000000000000000000000000007F
:10018000000000000000000000000000000000006F
:04019000D10D000885
:1001A00010B5054C237833B9044B13B10448AFF3B1
:1001B00000800123237010BD5400002000000000C7
:1001C0000417000808B5034B1BB103490348AFF3FC
:1001D000008008BD0000000058000020041700083F
:1001E00001F0FF01102A2BDB10F0070F08D010F8E8
:1001F000013B013A8B422DD010F0070F42B3F6D1EC
:10020000F0B441EA012141EA014122F007047FF004
:1002100000070023F0E80256083C85EA010586EA5B
:10022000010685FA47F5A3FA87F586FA47F6A5FA97
:1002300087F68EB9EED1F0BC01F0FF0102F00702A3
:1002400032B110F8013B013A83EA010313B1F8D14E
:100250000020704701387047002D06BF354603382F
:10026000073815F0010F07D1013015F4807F02BF68
:10027000013015F4C03F0130F0BC0138704700BFB9
:1002800080B483B000AF0346FB7197F90730002BB1
:100290000BDBFB7903F01F02074997F907305B0975
:1002A000012000FA02F241F8232000BF0C37BD46BE
:1002B0005DF8047B704700BF00E100E080B483B0CC
:1002C00000AF03463960FB7197F90730002B0ADB5A
:1002D0003B68DAB20C4997F907301201D2B20B44ED
:1002E00083F800230AE03B68DAB20849FB7903F09F
:1002F0000F03043B1201D2B20B441A7600BF0C3735
:10030000BD465DF8047B704700E100E000ED00E0D1
:1003100080B400AF364B07221A63364B1B68354A50
:1003200023F400531360334B1B68324A43F4805369
:100330001360304B1B682F4A43F4802313602D4B0E
:100340001B682C4A23F4002313602B4B1B682A4A9A
:1003500023F028431360284B1B68274A43F0A84327
:100360001360254B1B68244A23F4434323F0C00346
:100370001360214BDB68204A43F4824343F040037F
:10038000D3601D4BDB681C4A23F4024323F0800337
:10039000D3601A4B1B68194A23F040431360174B74
:1003A000DB68164A43F08043D360144BDB68134A82
:1003B00023F00043D360104B5B690F4A43F40053B2
:1003C00053610D4B5B690C4A43F4804353610A4B04
:1003D0005B69094A43F400435361064B5B69054A74
:1003E00043F04003536100BFBD465DF8047B704796
:1003F00000380240000802400004024000000240B1
:1004000080B500AF274B1B6C264A43F400331364BE
:10041000254B1B68244A43F020031360224B1B68C2
:10042000214A23F0100313601F4B1B681E4A43F040
:10043000800313601C4B1B681B4A23F040031360AE
:10044000194B1B6A184A43F4E0631362164B1B6A8C
:10045000154A43F4E0431362144BDB68134A43F03C
:100460002003D360114BDB68104A43F00803D360CC
:100470000E4BDB680D4A43F00403D3600B4B40F294
:1004800083629A60094BDB68084A43F40053D360E7
:1004900002210720FFF712FF2620FFF7F1FE00BF21
:1004A00080BD00BF00380240000002400044004010
:1004B00080B483B000AF0346FB7100BF074B1B68DD
:1004C00003F08003002BF9D0044AFB79536000BF8E
:1004D0000C37BD465DF8047B704700BF0044004008
:1004E00080B582B000AF786007E07B681B78184663
:1004F000FFF7DEFF7B6801337B607B681B78002B96
:10050000F3D100BF00BF0837BD4680BD80B400AF47
:10051000274B1B68264A23F080631360244B1B681B
:10052000234A43F000631360214B4FF480125A6258
:10053000204B5B6C1F4A43F0010353641E4B0022A7
:100540009A621D4B42F20F72DA621B4B9B691A4A88
:1005500043F008039361184B9B69174A43F060030B
:100560009361154B9B69144A23F010039361124B5E
:100570001B6A114A23F0080313620F4B1B6A0E4AD1
:1005800043F0040313620C4B5B6C0B4A43F40043CF
:100590005364094B00225A62074B1B68064A43F01A
:1005A0000103136000BFBD465DF8047B704700BFC8
:1005B00000040240003802400000014080B483B0D3
:1005C00000AF786039600C4A7B68B2FBF3F30B4AEA
:1005D000013BD362094BDB6A01333A6802FB03F348
:1005E000064A0749A1FB03135B09536300BF0C379D
:1005F000BD465DF8047B70470024F4000000014014
:100600001F85EB5180B500AF72B600BF134B1B6C5A
:10061000124A43F002031364114B43F67F629A625D
:100620000F4B00225A620E4B40F2F312DA620C4B6F
:10063000DB680B4A43F00103D360094B1B68084A8F
:1006400043F00103136002211D20FFF737FE1D2038
:10065000FFF716FE62B600BF00BF80BD0038024043
:100660000004004080B400AF154B5B6C144A43F4A7
:1006700080735364134B1B68124A43F030031360BA
:10068000114BDB6A104A23F47003D3620E4B0C2229
:100690005A630D4B9B680C4A43F0020393600A4B6C
:1006A0009B68094A43F001039360074B9B68064A25
:1006B00043F08043936000BFBD465DF8047B704704
:1006C00000380240000802400020014080B500AF21
:1006D00072B600BF114B5B6C104A43F48043536405
:1006E0000F4BDB680E4A43F48053D3600D4B1B68FD
:1006F0000C4A43F0800313600A4BDB68094A43F05D
:100700008003D36001210720FFF7D8FD1720FFF7F2
:10071000B7FD62B600BF00BF80BD00BF0038024019
:1007200000380140003C014080B500AF72B600BF08
:10073000114B5B6C104A43F4804353640F4B9B682E
:100740000E4A43F4805393600D4B1B680C4A43F0F0
:10075000080313600A4BDB68094A43F00803D360BF
:1007600001210720FFF7AAFD0920FFF789FD62B6E6
:1007700000BF00BF80BD00BF00380240003801400C
:10078000003C014080B500AF72B600BF114B5B6CFE
:10079000104A43F4804353640F4BDB680E4A43F026
:1007A0000103D3600D4B1B680C4A43F01003136028
:1007B0000A4BDB68094A43F01003D360012107208C
:1007C000FFF77CFD0A20FFF75BFD62B600BF00BFAC
:1007D00080BD00BF0038024000380140003C0140AD
:1007E00080B500AF72B600BF104B5B6C0F4A43F48C
:1007F000804353640E4B0E4A5B6953610D4B1B687B
:100800000C4A43F4004313600A4BDB68094A43F483
:100810000043D36001210720FFF750FD2820FFF798
:100820002FFD62B600BF00BF80BD00BF0038024090
:1008300000380140003C014080B400AF044B5B69CC
:100840009B0903F001031846BD465DF8047B704721
:100850000008024080B483B000AF78600C4B1B7876
:10086000042B0ED10B4B5A697B680A4953404B61EC
:10087000094B5B69084A83F400735361044B0022FF
:100880001A7000BF0C37BD465DF8047B704700BF8F
:1008900073000020000402400008024080B483B0CE
:1008A00000AF7860084B5A697B68074913434B6176
:1008B000064B5B69054A23F40073536100BF0C3794
:1008C000BD465DF8047B704700040240000802400A
:1008D00080B483B000AF78600C4B1B78002B0ED037
:1008E0000B4B5A697B680A4953404B61094B5B6962
:1008F000084A83F400735361044B00221A7000BF4E
:100900000C37BD465DF8047B704700BF73000020C4
:10091000000402400008024080B582B000AFFFF73B
:10092000F7FCFFF76DFDFFF79DFEFFF7EFFDFFF70B
:1009300069FEFFF7CBFEFFF7F7FEFFF723FFFFF798
:100940004FFF00237B600023FB70FFF775FF03461A
:10095000002B40F0AB805A4B1B78012B02D0022BAE
:1009600008D011E0574B01221A704FF48040FFF776
:1009700071FF0AE04FF48040FFF790FF514B0022D7
:100980001A704F4B00221A7000BF4F4B1B78012B7F
:1009900002D0022B08D011E04A4B02221A704FF409
:1009A0000040FFF757FF0AE04FF40040FFF776FFE3
:1009B000444B00221A70444B00221A7000BF434B74
:1009C0001B78013B032B3BD801A252F823F000BF58
:1009D000E1090008ED090008F9090008190A0008F2
:1009E0000A2142F21070FFF7E9FD2CE05A2142F291
:1009F0001070FFF7E3FD26E0324B1B78002B03D08D
:100A0000304B1B78032B1DD14FF44040FFF760FFA4
:100A10002C4B03221A7015E02A4B1B78032B06D1AE
:100A20004FF44040FFF73AFF264B00221A70002196
:100A300042F21070FFF7C2FD244B00221A7002E050
:100A400000BF00E000BF224B1B78012B7FF47DAF7D
:100A5000204B1B781A462049204800F0BBF91F485C
:100A6000FFF73EFD00BF1E4B1B685B0803F0010350
:100A7000012BF8D11A4BDB6CC3F30B037B607B6853
:100A8000642202FB03F3002B01DA03F6FF731B134E
:100A9000FB70FA7825231349104800F09BF90F48A2
:100AA000FFF71EFD0A4B00221A704EE7002142F2AA
:100AB0001070FFF783FD4FF44040FFF7EFFE44E76F
:100AC00071000020DC000020720000207000002077
:100AD00074000020000000201C170008780000208F
:100AE000002001402C17000880B400AF0B4B5B695D
:100AF00003F08003002B05D0094B5B69084A83F0A3
:100B000040035361054B5B69044A43F08003536122
:100B100000BFBD465DF8047B704700BF003C01404C
:100B20000008024080B500AF164B5B6903F0080374
:100B3000002B1ED0FFF780FE0346002B19D1124B6D
:100B40001B780133DAB2104B1A700F4B1B78032B52
:100B50000FD10E4B1B78002B0BD10D4B5B690C4A50
:100B600023F4404353610B4B5B690A4A43F400731F
:100B70005361044B5B69034A43F00803536100BFB0
:100B800080BD00BF003C014070000020DC00002060
:100B9000000402400008024080B500AF164B5B69BC
:100BA00003F01003002B1ED0FFF746FE0346002B78
:100BB00019D1124B1B78002B03D0104B1B78012B43
:100BC00011D10F4B5B690E4A23F4804353610D4BE7
:100BD0005B690C4A43F4007353610B4B1B78013380
:100BE000DAB2094B1A70044B5B69034A43F01003F5
:100BF000536100BF80BD00BF003C0140DC0000200D
:100C000000040240000802407100002080B500AFDF
:100C1000164B5B6903F40043002B1ED0FFF70CFE5C
:100C20000346002B19D1124B1B78002B03D0104B1D
:100C30001B78022B11D10F4B5B690E4A23F4004342
:100C400053610D4B5B690C4A43F4007353610B4BCA
:100C50001B780133DAB2094B1A70044B5B69034A03
:100C600043F40043536100BF80BD00BF003C01401E
:100C7000DC00002000040240000802407200002056
:100C800080B400AF144B1B6903F00103002B17D095
:100C9000124B1B78012B03D0104B1B78022B05D174
:100CA0000F4B1B780133DAB20D4B1A700B4B1B78CC
:100CB000032B02D10A4B01221A700A4B01221A702F
:100CC000054B1B69044A23F00103136100BFBD46B5
:100CD0005DF8047B704700BF00040040DC0000208A
:100CE000730000207400002080B400AF074B1B6825
:100CF00003F02003002B04D0044B5B68DAB2044BF2
:100D00001A7000BFBD465DF8047B70470044004088
:100D10000000002080B586B000AF7860144A154B03
:100D2000D31A7B617B693B61134B1B68002B02D19B
:100D3000114B124A1A60104B1A687B6813443A69C7
:100D40009A4207D200F066F803460C221A604FF070
:100D5000FF3309E0084B1B68FB60074B1A687B6890
:100D60001344054A1360FB6818461837BD4680BD1A
:100D70000080012000040000E0000020300200207C
:100D80000D488546AFF300800C480D490D4A0023FD
:100D900002E0D458C4500433C4188C42F9D30A4A30
:100DA0000A4C002301E013600432A242FBD300F09E
:100DB00037F8FFF7B1FDFEE70080012000000020BA
:100DC000540000207C170008540000202C02002052
:100DD000FEE700000EB400B59CB01DAB029006907B
:100DE0006FF00041094807910491094953F8042B19
:100DF00005910068019302A900F08CF9029B002282
:100E00001A701CB05DF804EB03B0704704000020BA
:100E10000802FFFF014B1868704700BF0400002064
:100E200070B50D4D0D4C641BA4100026A64209D1CF
:100E30000B4D0C4C00F066FC641BA4100026A6426F
:100E400005D170BD55F8043B98470136EEE755F8DB
:100E5000043B98470136F2E774170008741700083E
:100E600074170008781700087047704738B50546B2
:100E7000002941D051F8043C0C1F002BB8BFE418E6
:100E800000F0E0F81D4A136833B963601460284627
:100E9000BDE8384000F0DCB8A34208D9206821182A
:100EA0008B4201BF19685B6809182160EDE71A469B
:100EB0005B680BB1A342FAD911685018A0420BD15C
:100EC00020680144501883421160E0D118685B68C3
:100ED000536008441060DAE702D90C232B60D6E790
:100EE000206821188B4204BF19685B68636004BFE7
:100EF000091821605460CAE738BD00BF28020020ED
:100F000070B50F4E0C463168054611B900F0A6FBCE
:100F100030602146284600F0A1FB431C03D14FF06E
:100F2000FF34204670BDC41C24F00304A042F8D056
:100F3000211A284600F092FB0130F2D1EFE700BF02
:100F4000240200202DE9F843CD1C25F003050835C7
:100F50000C2D38BF0C25002D064601DBA94204D913
:100F60000C2333600020BDE8F883DFF8D48000F064
:100F700069F8D8F800301C4644BB29463046FFF7D4
:100F8000BFFF431C044658D1D8F800402746002F25
:100F900043D1002C4BD023683946304604EB03097B
:100FA00000F05CFB814542D121686D1A294630462C
:100FB000FFF7A6FF01303AD023682B442360D8F80E
:100FC00000305A6862BBC8F800700FE02268521BFC
:100FD00020D40B2A17D96119A342256018BF596084
:100FE000636808BFC8F8001062514B60304600F0DB
:100FF0002FF804F10B00231D20F00700C21A1CBFBC
:101000001B1AA350AFE76268A3420CBFC8F80020C8
:101010005A60EBE723466468AEE73C467F68B6E774
:101020001A465B68A342FBD100235360DEE70C2322
:101030003360304600F00CF894E70560D6E700BF57
:10104000280200200148FFF70FBF00BF2002002048
:101050000148FFF70ABF00BF200200202DE9F0473A
:101060008E681F46BE420B6882460C4690462DD8BD
:10107000B1F90C2012F4906F26D06569096905EB6F
:101080004505A3EB010905EBD5757B1C4B446D10A1
:101090009D4238BF1D46530527D52946FFF752FF0D
:1010A000064660B321694A4600F0E8FAA38923F4B2
:1010B000906343F08003A381266165614E44A5EBF4
:1010C00009052660A5603E46BE4200D93E4620681E
:1010D0003246414600F0A8FAA3689B1BA360236830
:1010E000334423600020BDE8F0872A4600F0D4FA9C
:1010F00006460028E0D121695046FFF7B7FE0C23D1
:10110000CAF80030A38943F04003A3814FF0FF30B9
:10111000E9E700002DE9F04F98468B891B069DB04A
:1011200007460D46144610D50B6973B94021FFF7E9
:1011300009FF2860286130B90C233B604FF0FF3075
:101140001DB0BDE8F08F40236B610023099320237D
:101150008DF82930CDF80C803023DFF89C818DF894
:101160002A304FF0010923469A4613F8012B0AB1A1
:10117000252AF9D1BAEB040B0BD05B46224629464F
:101180003846FFF76BFF013000F0A780099A5A44F8
:1011900009929AF80030002B00F09F8000234FF056
:1011A000FF32CDE905230AF1010A049307938DF874
:1011B00053301A935446052214F8011B4E48FFF78A
:1011C0000FF8049AD8B9D00644BF20238DF85330C5
:1011D000110744BF2B238DF853309AF800302A2B87
:1011E00015D0079A544600204FF00A0C214611F8FA
:1011F000013B303B092B4BD9B0B1079214E0A0EB77
:10120000080309FA03F313430493A246D2E7039BAE
:10121000191D1B680391002BBBBF5B4242F0020209
:1012200007930793B8BF049223782E2B0AD16378D3
:101230002A2B32D1039B1A1D1B68039243EAE373E6
:1012400002340593DFF8C0A0217803225046FEF750
:10125000C7FF38B1049BA0EB0A0040228240134331
:101260000134049314F8011B24488DF82810062239
:10127000FEF7B6FF002836D0214B1BBB039B07337C
:1012800023F0070308330393099B334409936AE768
:101290000CFB02320C460120A8E700230134059321
:1012A00019464FF00A0C204610F8012B303A092A53
:1012B00003D9002BC6D00591C4E70CFB01210446DD
:1012C0000123F0E703AB00932A460E4B04A93846EE
:1012D000AFF30080421C0646D6D1AB895B063FF5D2
:1012E0002DAF09982CE703AB00932A46054B04A9C0
:1012F000384600F079F8EDE7391700084317000881
:10130000000000005D1000083F1700082DE9F047BD
:10131000164698468A680B69DDF820909342B8BF5C
:101320001346336091F8432007460C460AB1013357
:1013300033602368990642BF3368023333602568FF
:1013400015F0060506D104F1190AE36832689B1A04
:10135000AB4226DC94F843302268003B18BF0123DF
:1013600092062BD404F1430241463846C847013067
:101370001ED02368226903F00603042B02BFE56830
:101380003368ED1AA3680CBF25EAE5750025934282
:10139000C4BF9B1AED1800261A34B5421AD100209A
:1013A00008E00123524641463846C847013003D180
:1013B0004FF0FF30BDE8F0870135C6E7E1185A1C51
:1013C000302081F84300224494F8451082F84310FD
:1013D0000233C7E70123224641463846C847013059
:1013E000E6D00136D9E700002DE9FF470F7E0C9EBD
:1013F000782F914680460C469A4601F1430207D861
:10140000622F0AD8002F00F0D280582F00F0B98048
:1014100004F1420684F842703AE0A7F16303152B09
:10142000F6D801A151F823F08114000895140008A2
:1014300011140008111400081114000811140008F8
:101440009514000811140008111400081114000864
:101450001114000895150008BF1400084F15000866
:101460001114000811140008B71500081114000821
:10147000BF140008111400081114000857150008C3
:1014800033681A1D1B68326004F1420684F842304A
:1014900001239DE033682068191D3160060601D5DF
:1014A0001D6803E04506FBD5B3F90050002D03DAB3
:1014B0002D236D4284F8433059480A2311E02168F6
:1014C0003368080653F8045B02D4490648BFADB23E
:1014D0006F2F5348336014BF0A230823002184F878
:1014E00043106668A660002EA2BF216821F00401A7
:1014F00021600DB9002E4BD01646B5FBF3F103FB6E
:101500001157C75D06F8017D2F46BB420D46F4D941
:10151000082B0BD12368DF0708D52369616899423E
:10152000DEBF302306F8013C06F1FF36921B226134
:10153000CDF800A04B4603AA21464046FFF7E6FE41
:1015400001304AD14FF0FF3004B0BDE8F087236886
:1015500043F0200323603348782784F845702368DC
:1015600031681F0651F8045B02D45F0648BFADB274
:101570003160D90744BF43F0200323601DB110231D
:10158000ACE72748E9E7236823F020032360F6E768
:101590001646BDE7336825686169181D30602E0660
:1015A0001B6801D5196002E06806FBD5198000238D
:1015B00023611646BCE733681A1D32601E686268F4
:1015C00000213046FEF70CFE08B1801B60606368A6
:1015D0002361002384F84330AAE723693246494651
:1015E0004046D0470130ADD023689B0713D4E06854
:1015F000039B9842B8BF1846A6E7012332464946E6
:101600004046D04701309DD00135E36803995B1A0D
:10161000AB42F2DCEBE7002504F11906F5E700BF69
:101620004A1700085B170008884210B501EB020456
:1016300002D98442234607D8431EA14208D011F89C
:10164000012B03F8012FF8E7024401468A4200D13A
:1016500010BD13F8014D02F8014DF7E738B5064DFE
:101660000023044608462B60FFF754FB431C02D1BD
:101670002B6803B1236038BD1C0200200A4491424C
:1016800000F1FF3300D1704710B511F8014B03F89A
:10169000014F9142F9D110BD2DE9F0418046154628
:1016A0000C4621B9BDE8F0411146FFF74BBC2AB901
:1016B000FFF7DCFB00242046BDE8F08100F01AF8BB
:1016C0008542064602D8B5EB500FF4D8294640466D
:1016D000FFF738FC07460028ECD0B5422A462146E1
:1016E00028BF3246FFF7CAFF21464046FFF7BEFB40
:1016F0003C46E0E751F8043C181F002BBCBF0B58D8
:10170000C0187047F8B500BFF8BC08BC9E467047CB
:0C171000F8B500BFF8BC08BC9E4670474E
:10171C0072656365697665643A2025630D00000087
:10172C004675656C3A2025642025630D00232D3009
:10173C002B2000686C4C00656667454647003031CD
:10174C00323334353637383941424344454600301C
:10175C00313233343536373839616263646566004B
:08176C0074EAFF7F0100000098
:04177400C5010008A3
:04177800A1010008C3
:10177C00200000000800002000000000E400002011
:10178C004C010020B401002000000000000000000B
:10179C00000000000000000000000000000000003D
:1017AC00000000000000000000000000000000002D
:1017BC00000000000000000000000000000000001D
:0417CC000000000019
:0400000508000D8161
:00000001FF
